{
  "_format": "hh-sol-artifact-1",
  "contractName": "Dice",
  "sourceName": "contracts/Dice.sol",
  "abi": [
    {
      "inputs": [
        {
          "internalType": "uint256",
          "name": "_minimumBet",
          "type": "uint256"
        }
      ],
      "stateMutability": "nonpayable",
      "type": "constructor"
    },
    {
      "anonymous": false,
      "inputs": [
        {
          "indexed": true,
          "internalType": "address",
          "name": "player",
          "type": "address"
        },
        {
          "indexed": false,
          "internalType": "uint256",
          "name": "amount",
          "type": "uint256"
        },
        {
          "indexed": false,
          "internalType": "uint256",
          "name": "target",
          "type": "uint256"
        },
        {
          "indexed": false,
          "internalType": "enum Dice.BetDirection",
          "name": "betDirection",
          "type": "uint8"
        },
        {
          "indexed": false,
          "internalType": "uint256",
          "name": "multiplier",
          "type": "uint256"
        },
        {
          "indexed": false,
          "internalType": "uint256",
          "name": "payout",
          "type": "uint256"
        },
        {
          "indexed": false,
          "internalType": "uint256",
          "name": "randomNumber",
          "type": "uint256"
        },
        {
          "indexed": false,
          "internalType": "bool",
          "name": "result",
          "type": "bool"
        }
      ],
      "name": "BetPlaced",
      "type": "event"
    },
    {
      "stateMutability": "nonpayable",
      "type": "fallback"
    },
    {
      "inputs": [
        {
          "internalType": "uint256",
          "name": "target",
          "type": "uint256"
        },
        {
          "internalType": "enum Dice.BetDirection",
          "name": "betDirection",
          "type": "uint8"
        }
      ],
      "name": "bet",
      "outputs": [],
      "stateMutability": "payable",
      "type": "function"
    },
    {
      "inputs": [
        {
          "internalType": "uint256",
          "name": "betAmount",
          "type": "uint256"
        },
        {
          "internalType": "uint256",
          "name": "multiplier",
          "type": "uint256"
        }
      ],
      "name": "calculateWinningAmount",
      "outputs": [
        {
          "internalType": "uint256",
          "name": "",
          "type": "uint256"
        }
      ],
      "stateMutability": "pure",
      "type": "function"
    },
    {
      "inputs": [],
      "name": "generateRandomNumber",
      "outputs": [
        {
          "internalType": "uint256",
          "name": "",
          "type": "uint256"
        }
      ],
      "stateMutability": "view",
      "type": "function"
    },
    {
      "inputs": [],
      "name": "getHouseFunds",
      "outputs": [
        {
          "internalType": "uint256",
          "name": "",
          "type": "uint256"
        }
      ],
      "stateMutability": "view",
      "type": "function"
    },
    {
      "inputs": [
        {
          "internalType": "uint256",
          "name": "target",
          "type": "uint256"
        },
        {
          "internalType": "enum Dice.BetDirection",
          "name": "betDirection",
          "type": "uint8"
        }
      ],
      "name": "getMultiplier",
      "outputs": [
        {
          "internalType": "uint256",
          "name": "",
          "type": "uint256"
        }
      ],
      "stateMutability": "pure",
      "type": "function"
    },
    {
      "inputs": [],
      "name": "houseFunds",
      "outputs": [
        {
          "internalType": "uint256",
          "name": "",
          "type": "uint256"
        }
      ],
      "stateMutability": "view",
      "type": "function"
    },
    {
      "inputs": [
        {
          "internalType": "enum Dice.BetDirection",
          "name": "betDirection",
          "type": "uint8"
        },
        {
          "internalType": "uint256",
          "name": "randomNumber",
          "type": "uint256"
        },
        {
          "internalType": "uint256",
          "name": "target",
          "type": "uint256"
        }
      ],
      "name": "isPlayerWinning",
      "outputs": [
        {
          "internalType": "bool",
          "name": "",
          "type": "bool"
        }
      ],
      "stateMutability": "pure",
      "type": "function"
    },
    {
      "inputs": [],
      "name": "minimumBet",
      "outputs": [
        {
          "internalType": "uint256",
          "name": "",
          "type": "uint256"
        }
      ],
      "stateMutability": "view",
      "type": "function"
    },
    {
      "inputs": [],
      "name": "owner",
      "outputs": [
        {
          "internalType": "address",
          "name": "",
          "type": "address"
        }
      ],
      "stateMutability": "view",
      "type": "function"
    },
    {
      "inputs": [
        {
          "internalType": "uint256",
          "name": "amount",
          "type": "uint256"
        }
      ],
      "name": "withdrawHouseFunds",
      "outputs": [],
      "stateMutability": "nonpayable",
      "type": "function"
    }
  ],
  "bytecode": "0x608060405234801561001057600080fd5b50604051611092380380611092833981810160405281019061003291906100ba565b336000806101000a81548173ffffffffffffffffffffffffffffffffffffffff021916908373ffffffffffffffffffffffffffffffffffffffff16021790555080600181905550506100e7565b600080fd5b6000819050919050565b61009781610084565b81146100a257600080fd5b50565b6000815190506100b48161008e565b92915050565b6000602082840312156100d0576100cf61007f565b5b60006100de848285016100a5565b91505092915050565b610f9c806100f66000396000f3fe6080604052600436106100955760003560e01c8063895b7fad11610059578063895b7fad146101d75780638da5cb5b14610214578063c38a8afd1461023f578063c437a0cd1461026a578063dd4823bf1461028657610096565b806349d492e9146100de5780634a590bc01461011b578063773a1154146101585780637d59441a146101835780637e0d29f7146101ac57610096565b5b3480156100a257600080fd5b506040517f08c379a00000000000000000000000000000000000000000000000000000000081526004016100d5906107e0565b60405180910390fd5b3480156100ea57600080fd5b506101056004803603810190610100919061083b565b6102b1565b604051610112919061088a565b60405180910390f35b34801561012757600080fd5b50610142600480360381019061013d91906108ca565b6102d8565b60405161014f9190610938565b60405180910390f35b34801561016457600080fd5b5061016d610323565b60405161017a919061088a565b60405180910390f35b34801561018f57600080fd5b506101aa60048036038101906101a59190610953565b610364565b005b3480156101b857600080fd5b506101c16104ba565b6040516101ce919061088a565b60405180910390f35b3480156101e357600080fd5b506101fe60048036038101906101f99190610980565b6104c0565b60405161020b919061088a565b60405180910390f35b34801561022057600080fd5b50610229610542565b6040516102369190610a01565b60405180910390f35b34801561024b57600080fd5b50610254610566565b604051610261919061088a565b60405180910390f35b610284600480360381019061027f9190610980565b61056c565b005b34801561029257600080fd5b5061029b610755565b6040516102a8919061088a565b60405180910390f35b600080606483856102c29190610a4b565b6102cc9190610abc565b90508091505092915050565b600080600060018111156102ef576102ee610aed565b5b85600181111561030257610301610aed565b5b0361031257828410159050610318565b82841090505b809150509392505050565b6000606442443360405160200161033c93929190610b85565b6040516020818303038152906040528051906020012060001c61035f9190610bc2565b905090565b60008054906101000a900473ffffffffffffffffffffffffffffffffffffffff1673ffffffffffffffffffffffffffffffffffffffff163373ffffffffffffffffffffffffffffffffffffffff16146103f2576040517f08c379a00000000000000000000000000000000000000000000000000000000081526004016103e990610c65565b60405180910390fd5b600254811115610437576040517f08c379a000000000000000000000000000000000000000000000000000000000815260040161042e90610cd1565b60405180910390fd5b80600260008282546104499190610cf1565b9250508190555060008054906101000a900473ffffffffffffffffffffffffffffffffffffffff1673ffffffffffffffffffffffffffffffffffffffff166108fc829081150290604051600060405180830381858888f193505050501580156104b6573d6000803e3d6000fd5b5050565b60025481565b6000806064905060008060018111156104dc576104db610aed565b5b8460018111156104ef576104ee610aed565b5b0361051d5784826105009190610cf1565b828361050c9190610a4b565b6105169190610abc565b9050610537565b84828361052a9190610a4b565b6105349190610abc565b90505b809250505092915050565b60008054906101000a900473ffffffffffffffffffffffffffffffffffffffff1681565b60015481565b6001543410156105b1576040517f08c379a00000000000000000000000000000000000000000000000000000000081526004016105a890610d71565b60405180910390fd5b600082101580156105c3575060648211155b610602576040517f08c379a00000000000000000000000000000000000000000000000000000000081526004016105f990610ddd565b60405180910390fd5b60003490506000610611610323565b905060006106208483876102d8565b9050600061062e86866104c0565b9050600061063c85836102b1565b905082156106f25760003373ffffffffffffffffffffffffffffffffffffffff168260405161066a90610e2e565b60006040518083038185875af1925050503d80600081146106a7576040519150601f19603f3d011682016040523d82523d6000602084013e6106ac565b606091505b50509050806106f0576040517f08c379a00000000000000000000000000000000000000000000000000000000081526004016106e790610e8f565b60405180910390fd5b505b3373ffffffffffffffffffffffffffffffffffffffff167f2f07883f159320f0a6e75287ec97891cae59cc4fff0992d7982e3c1c82694a3b34898986868a8a6040516107449796959493929190610ef7565b60405180910390a250505050505050565b600047905090565b600082825260208201905092915050565b7f46616c6c6261636b2066756e6374696f6e3a205472616e73666572206661696c60008201527f6564000000000000000000000000000000000000000000000000000000000000602082015250565b60006107ca60228361075d565b91506107d58261076e565b604082019050919050565b600060208201905081810360008301526107f9816107bd565b9050919050565b600080fd5b6000819050919050565b61081881610805565b811461082357600080fd5b50565b6000813590506108358161080f565b92915050565b6000806040838503121561085257610851610800565b5b600061086085828601610826565b925050602061087185828601610826565b9150509250929050565b61088481610805565b82525050565b600060208201905061089f600083018461087b565b92915050565b600281106108b257600080fd5b50565b6000813590506108c4816108a5565b92915050565b6000806000606084860312156108e3576108e2610800565b5b60006108f1868287016108b5565b935050602061090286828701610826565b925050604061091386828701610826565b9150509250925092565b60008115159050919050565b6109328161091d565b82525050565b600060208201905061094d6000830184610929565b92915050565b60006020828403121561096957610968610800565b5b600061097784828501610826565b91505092915050565b6000806040838503121561099757610996610800565b5b60006109a585828601610826565b92505060206109b6858286016108b5565b9150509250929050565b600073ffffffffffffffffffffffffffffffffffffffff82169050919050565b60006109eb826109c0565b9050919050565b6109fb816109e0565b82525050565b6000602082019050610a1660008301846109f2565b92915050565b7f4e487b7100000000000000000000000000000000000000000000000000000000600052601160045260246000fd5b6000610a5682610805565b9150610a6183610805565b9250828202610a6f81610805565b91508282048414831517610a8657610a85610a1c565b5b5092915050565b7f4e487b7100000000000000000000000000000000000000000000000000000000600052601260045260246000fd5b6000610ac782610805565b9150610ad283610805565b925082610ae257610ae1610a8d565b5b828204905092915050565b7f4e487b7100000000000000000000000000000000000000000000000000000000600052602160045260246000fd5b6000819050919050565b610b37610b3282610805565b610b1c565b82525050565b60008160601b9050919050565b6000610b5582610b3d565b9050919050565b6000610b6782610b4a565b9050919050565b610b7f610b7a826109e0565b610b5c565b82525050565b6000610b918286610b26565b602082019150610ba18285610b26565b602082019150610bb18284610b6e565b601482019150819050949350505050565b6000610bcd82610805565b9150610bd883610805565b925082610be857610be7610a8d565b5b828206905092915050565b7f4f6e6c79206f776e65722063616e20776974686472617720686f75736520667560008201527f6e64730000000000000000000000000000000000000000000000000000000000602082015250565b6000610c4f60238361075d565b9150610c5a82610bf3565b604082019050919050565b60006020820190508181036000830152610c7e81610c42565b9050919050565b7f4e6f7420656e6f7567682066756e647320617661696c61626c65000000000000600082015250565b6000610cbb601a8361075d565b9150610cc682610c85565b602082019050919050565b60006020820190508181036000830152610cea81610cae565b9050919050565b6000610cfc82610805565b9150610d0783610805565b9250828203905081811115610d1f57610d1e610a1c565b5b92915050565b7f496e73756666696369656e742062657420616d6f756e74000000000000000000600082015250565b6000610d5b60178361075d565b9150610d6682610d25565b602082019050919050565b60006020820190508181036000830152610d8a81610d4e565b9050919050565b7f496e76616c696420746172676574206e756d6265720000000000000000000000600082015250565b6000610dc760158361075d565b9150610dd282610d91565b602082019050919050565b60006020820190508181036000830152610df681610dba565b9050919050565b600081905092915050565b50565b6000610e18600083610dfd565b9150610e2382610e08565b600082019050919050565b6000610e3982610e0b565b9150819050919050565b7f5472616e73666572206661696c65640000000000000000000000000000000000600082015250565b6000610e79600f8361075d565b9150610e8482610e43565b602082019050919050565b60006020820190508181036000830152610ea881610e6c565b9050919050565b60028110610ec057610ebf610aed565b5b50565b6000819050610ed182610eaf565b919050565b6000610ee182610ec3565b9050919050565b610ef181610ed6565b82525050565b600060e082019050610f0c600083018a61087b565b610f19602083018961087b565b610f266040830188610ee8565b610f33606083018761087b565b610f40608083018661087b565b610f4d60a083018561087b565b610f5a60c0830184610929565b9897505050505050505056fea26469706673582212209979406d957de1e34e69e8b78ce66c63ac765901a2293ab9e52a4e391182227964736f6c63430008130033",
  "linkReferences": {},
  "deployedLinkReferences": {}
}